{
  "_format": "hh-sol-artifact-1",
  "contractName": "MedInvoiceContract",
  "sourceName": "contracts/MedInvoiceContract.sol",
  "abi": [
    {
      "inputs": [
        {
          "internalType": "address",
          "name": "_pptToken",
          "type": "address"
        }
      ],
      "stateMutability": "nonpayable",
      "type": "constructor"
    },
    {
      "inputs": [
        {
          "internalType": "address",
          "name": "owner",
          "type": "address"
        }
      ],
      "name": "OwnableInvalidOwner",
      "type": "error"
    },
    {
      "inputs": [
        {
          "internalType": "address",
          "name": "account",
          "type": "address"
        }
      ],
      "name": "OwnableUnauthorizedAccount",
      "type": "error"
    },
    {
      "inputs": [],
      "name": "ReentrancyGuardReentrantCall",
      "type": "error"
    },
    {
      "anonymous": false,
      "inputs": [
        {
          "indexed": true,
          "internalType": "address",
          "name": "user",
          "type": "address"
        },
        {
          "indexed": false,
          "internalType": "string",
          "name": "file",
          "type": "string"
        },
        {
          "indexed": false,
          "internalType": "uint256",
          "name": "timestamp",
          "type": "uint256"
        }
      ],
      "name": "FileSaved",
      "type": "event"
    },
    {
      "anonymous": false,
      "inputs": [
        {
          "indexed": true,
          "internalType": "address",
          "name": "subscriber",
          "type": "address"
        },
        {
          "indexed": false,
          "internalType": "uint256",
          "name": "endTime",
          "type": "uint256"
        }
      ],
      "name": "NewSubscription",
      "type": "event"
    },
    {
      "anonymous": false,
      "inputs": [
        {
          "indexed": true,
          "internalType": "address",
          "name": "previousOwner",
          "type": "address"
        },
        {
          "indexed": true,
          "internalType": "address",
          "name": "newOwner",
          "type": "address"
        }
      ],
      "name": "OwnershipTransferred",
      "type": "event"
    },
    {
      "inputs": [],
      "name": "SUBSCRIPTION_AMOUNT",
      "outputs": [
        {
          "internalType": "uint256",
          "name": "",
          "type": "uint256"
        }
      ],
      "stateMutability": "view",
      "type": "function"
    },
    {
      "inputs": [],
      "name": "SUBSCRIPTION_PERIOD",
      "outputs": [
        {
          "internalType": "uint256",
          "name": "",
          "type": "uint256"
        }
      ],
      "stateMutability": "view",
      "type": "function"
    },
    {
      "inputs": [],
      "name": "getFiles",
      "outputs": [
        {
          "internalType": "string[]",
          "name": "",
          "type": "string[]"
        }
      ],
      "stateMutability": "view",
      "type": "function"
    },
    {
      "inputs": [],
      "name": "getSubscriptionDetails",
      "outputs": [
        {
          "internalType": "bool",
          "name": "exists",
          "type": "bool"
        },
        {
          "internalType": "uint256",
          "name": "endTime",
          "type": "uint256"
        }
      ],
      "stateMutability": "view",
      "type": "function"
    },
    {
      "inputs": [
        {
          "internalType": "address",
          "name": "user",
          "type": "address"
        }
      ],
      "name": "getSubscriptionEndDate",
      "outputs": [
        {
          "internalType": "uint256",
          "name": "",
          "type": "uint256"
        }
      ],
      "stateMutability": "view",
      "type": "function"
    },
    {
      "inputs": [],
      "name": "getUserTokens",
      "outputs": [
        {
          "internalType": "uint256",
          "name": "",
          "type": "uint256"
        }
      ],
      "stateMutability": "view",
      "type": "function"
    },
    {
      "inputs": [
        {
          "internalType": "address",
          "name": "user",
          "type": "address"
        }
      ],
      "name": "isSubscribed",
      "outputs": [
        {
          "internalType": "bool",
          "name": "",
          "type": "bool"
        }
      ],
      "stateMutability": "view",
      "type": "function"
    },
    {
      "inputs": [],
      "name": "owner",
      "outputs": [
        {
          "internalType": "address",
          "name": "",
          "type": "address"
        }
      ],
      "stateMutability": "view",
      "type": "function"
    },
    {
      "inputs": [],
      "name": "pptToken",
      "outputs": [
        {
          "internalType": "contract IERC20",
          "name": "",
          "type": "address"
        }
      ],
      "stateMutability": "view",
      "type": "function"
    },
    {
      "inputs": [],
      "name": "renounceOwnership",
      "outputs": [],
      "stateMutability": "nonpayable",
      "type": "function"
    },
    {
      "inputs": [
        {
          "internalType": "string",
          "name": "file",
          "type": "string"
        }
      ],
      "name": "saveFile",
      "outputs": [],
      "stateMutability": "nonpayable",
      "type": "function"
    },
    {
      "inputs": [],
      "name": "subscribe",
      "outputs": [],
      "stateMutability": "nonpayable",
      "type": "function"
    },
    {
      "inputs": [
        {
          "internalType": "address",
          "name": "",
          "type": "address"
        }
      ],
      "name": "subscriptionEndTimes",
      "outputs": [
        {
          "internalType": "uint256",
          "name": "",
          "type": "uint256"
        }
      ],
      "stateMutability": "view",
      "type": "function"
    },
    {
      "inputs": [
        {
          "internalType": "address",
          "name": "newOwner",
          "type": "address"
        }
      ],
      "name": "transferOwnership",
      "outputs": [],
      "stateMutability": "nonpayable",
      "type": "function"
    },
    {
      "inputs": [
        {
          "internalType": "uint256",
          "name": "amount",
          "type": "uint256"
        }
      ],
      "name": "withdrawTokens",
      "outputs": [],
      "stateMutability": "nonpayable",
      "type": "function"
    }
  ],
  "bytecode": "0x60a060405234801561001057600080fd5b50604051611d05380380611d058339818101604052810190610032919061021d565b33600073ffffffffffffffffffffffffffffffffffffffff168173ffffffffffffffffffffffffffffffffffffffff16036100a55760006040517f1e4fbdf700000000000000000000000000000000000000000000000000000000815260040161009c9190610259565b60405180910390fd5b6100b4816100f660201b60201c565b50600180819055508073ffffffffffffffffffffffffffffffffffffffff1660808173ffffffffffffffffffffffffffffffffffffffff168152505050610274565b60008060009054906101000a900473ffffffffffffffffffffffffffffffffffffffff169050816000806101000a81548173ffffffffffffffffffffffffffffffffffffffff021916908373ffffffffffffffffffffffffffffffffffffffff1602179055508173ffffffffffffffffffffffffffffffffffffffff168173ffffffffffffffffffffffffffffffffffffffff167f8be0079c531659141344cd1fd0a4f28419497f9722a3daafe3b4186f6b6457e060405160405180910390a35050565b600080fd5b600073ffffffffffffffffffffffffffffffffffffffff82169050919050565b60006101ea826101bf565b9050919050565b6101fa816101df565b811461020557600080fd5b50565b600081519050610217816101f1565b92915050565b600060208284031215610233576102326101ba565b5b600061024184828501610208565b91505092915050565b610253816101df565b82525050565b600060208201905061026e600083018461024a565b92915050565b608051611a536102b2600039600081816103690152818161056001528181610695015281816108490152818161086f01526109880152611a536000f3fe608060405234801561001057600080fd5b50600436106100f55760003560e01c80637b5b50e711610097578063b92ae87c11610066578063b92ae87c1461022b578063bccf7ef81461025b578063c5fb22571461028b578063f2fde38b146102a9576100f5565b80637b5b50e7146101c75780638a664ebc146101e55780638da5cb5b146102035780638f449a0514610221576100f5565b8063315a095d116100d3578063315a095d146101675780634ea1dc5e1461018357806359c50c2a146101a1578063715018a6146101bd576100f5565b80630d5de6df146100fa57806328ccd52a146101195780632da96d7314610149575b600080fd5b6101026102c5565b604051610110929190610de7565b60405180910390f35b610133600480360381019061012e9190610e82565b61031a565b6040516101409190610eaf565b60405180910390f35b610151610363565b60405161015e919061101c565b60405180910390f35b610181600480360381019061017c919061106a565b610556565b005b61018b610645565b6040516101989190610eaf565b60405180910390f35b6101bb60048036038101906101b691906111cc565b61064d565b005b6101c5610833565b005b6101cf610847565b6040516101dc9190611274565b60405180910390f35b6101ed61086b565b6040516101fa9190610eaf565b60405180910390f35b61020b61090c565b604051610218919061129e565b60405180910390f35b610229610935565b005b61024560048036038101906102409190610e82565b610b1c565b60405161025291906112b9565b60405180910390f35b61027560048036038101906102709190610e82565b610b67565b6040516102829190610eaf565b60405180910390f35b610293610b7f565b6040516102a09190610eaf565b60405180910390f35b6102c360048036038101906102be9190610e82565b610b8b565b005b6000806000600360003373ffffffffffffffffffffffffffffffffffffffff1673ffffffffffffffffffffffffffffffffffffffff168152602001908152602001600020549050600081119250809150509091565b6000600360008373ffffffffffffffffffffffffffffffffffffffff1673ffffffffffffffffffffffffffffffffffffffff168152602001908152602001600020549050919050565b606060017f000000000000000000000000000000000000000000000000000000000000000073ffffffffffffffffffffffffffffffffffffffff166370a08231336040518263ffffffff1660e01b81526004016103c0919061129e565b602060405180830381865afa1580156103dd573d6000803e3d6000fd5b505050506040513d601f19601f8201168201806040525081019061040191906112e9565b1015610442576040517f08c379a000000000000000000000000000000000000000000000000000000000815260040161043990611399565b60405180910390fd5b600260003373ffffffffffffffffffffffffffffffffffffffff1673ffffffffffffffffffffffffffffffffffffffff168152602001908152602001600020805480602002602001604051908101604052809291908181526020016000905b8282101561054d5783829060005260206000200180546104c0906113e8565b80601f01602080910402602001604051908101604052809291908181526020018280546104ec906113e8565b80156105395780601f1061050e57610100808354040283529160200191610539565b820191906000526020600020905b81548152906001019060200180831161051c57829003601f168201915b5050505050815260200190600101906104a1565b50505050905090565b61055e610c11565b7f000000000000000000000000000000000000000000000000000000000000000073ffffffffffffffffffffffffffffffffffffffff1663a9059cbb6105a261090c565b836040518363ffffffff1660e01b81526004016105c0929190611419565b6020604051808303816000875af11580156105df573d6000803e3d6000fd5b505050506040513d601f19601f82011682018060405250810190610603919061146e565b610642576040517f08c379a0000000000000000000000000000000000000000000000000000000008152600401610639906114e7565b60405180910390fd5b50565b6301e1338081565b6000815111610691576040517f08c379a000000000000000000000000000000000000000000000000000000000815260040161068890611553565b60405180910390fd5b60017f000000000000000000000000000000000000000000000000000000000000000073ffffffffffffffffffffffffffffffffffffffff166370a08231336040518263ffffffff1660e01b81526004016106ec919061129e565b602060405180830381865afa158015610709573d6000803e3d6000fd5b505050506040513d601f19601f8201168201806040525081019061072d91906112e9565b101561076e576040517f08c379a0000000000000000000000000000000000000000000000000000000008152600401610765906115e5565b60405180910390fd5b600260003373ffffffffffffffffffffffffffffffffffffffff1673ffffffffffffffffffffffffffffffffffffffff168152602001908152602001600020819080600181540180825580915050600190039060005260206000200160009091909190915090816107df91906117a7565b503373ffffffffffffffffffffffffffffffffffffffff167f6079c18b35d926c438b028e015beb6e82427954d71f345b039827c7a435ccf8a82426040516108289291906118b2565b60405180910390a250565b61083b610c11565b6108456000610c98565b565b7f000000000000000000000000000000000000000000000000000000000000000081565b60007f000000000000000000000000000000000000000000000000000000000000000073ffffffffffffffffffffffffffffffffffffffff166370a08231336040518263ffffffff1660e01b81526004016108c6919061129e565b602060405180830381865afa1580156108e3573d6000803e3d6000fd5b505050506040513d601f19601f8201168201806040525081019061090791906112e9565b905090565b60008060009054906101000a900473ffffffffffffffffffffffffffffffffffffffff16905090565b61093d610d5c565b61094633610b1c565b15610986576040517f08c379a000000000000000000000000000000000000000000000000000000000815260040161097d9061192e565b60405180910390fd5b7f000000000000000000000000000000000000000000000000000000000000000073ffffffffffffffffffffffffffffffffffffffff1663a9059cbb33678ac7230489e800006040518363ffffffff1660e01b81526004016109e9929190611419565b6020604051808303816000875af1158015610a08573d6000803e3d6000fd5b505050506040513d601f19601f82011682018060405250810190610a2c919061146e565b610a6b576040517f08c379a0000000000000000000000000000000000000000000000000000000008152600401610a629061199a565b60405180910390fd5b60006301e1338042610a7d91906119e9565b905080600360003373ffffffffffffffffffffffffffffffffffffffff1673ffffffffffffffffffffffffffffffffffffffff168152602001908152602001600020819055503373ffffffffffffffffffffffffffffffffffffffff167f1e05df24f73db39faa0c2d5d26727d08632debce09833123a69214ba943e07c282604051610b099190610eaf565b60405180910390a250610b1a610da2565b565b600042600360008473ffffffffffffffffffffffffffffffffffffffff1673ffffffffffffffffffffffffffffffffffffffff16815260200190815260200160002054119050919050565b60036020528060005260406000206000915090505481565b678ac7230489e8000081565b610b93610c11565b600073ffffffffffffffffffffffffffffffffffffffff168173ffffffffffffffffffffffffffffffffffffffff1603610c055760006040517f1e4fbdf7000000000000000000000000000000000000000000000000000000008152600401610bfc919061129e565b60405180910390fd5b610c0e81610c98565b50565b610c19610dab565b73ffffffffffffffffffffffffffffffffffffffff16610c3761090c565b73ffffffffffffffffffffffffffffffffffffffff1614610c9657610c5a610dab565b6040517f118cdaa7000000000000000000000000000000000000000000000000000000008152600401610c8d919061129e565b60405180910390fd5b565b60008060009054906101000a900473ffffffffffffffffffffffffffffffffffffffff169050816000806101000a81548173ffffffffffffffffffffffffffffffffffffffff021916908373ffffffffffffffffffffffffffffffffffffffff1602179055508173ffffffffffffffffffffffffffffffffffffffff168173ffffffffffffffffffffffffffffffffffffffff167f8be0079c531659141344cd1fd0a4f28419497f9722a3daafe3b4186f6b6457e060405160405180910390a35050565b600260015403610d98576040517f3ee5aeb500000000000000000000000000000000000000000000000000000000815260040160405180910390fd5b6002600181905550565b60018081905550565b600033905090565b60008115159050919050565b610dc881610db3565b82525050565b6000819050919050565b610de181610dce565b82525050565b6000604082019050610dfc6000830185610dbf565b610e096020830184610dd8565b9392505050565b6000604051905090565b600080fd5b600080fd5b600073ffffffffffffffffffffffffffffffffffffffff82169050919050565b6000610e4f82610e24565b9050919050565b610e5f81610e44565b8114610e6a57600080fd5b50565b600081359050610e7c81610e56565b92915050565b600060208284031215610e9857610e97610e1a565b5b6000610ea684828501610e6d565b91505092915050565b6000602082019050610ec46000830184610dd8565b92915050565b600081519050919050565b600082825260208201905092915050565b6000819050602082019050919050565b600081519050919050565b600082825260208201905092915050565b60005b83811015610f30578082015181840152602081019050610f15565b60008484015250505050565b6000601f19601f8301169050919050565b6000610f5882610ef6565b610f628185610f01565b9350610f72818560208601610f12565b610f7b81610f3c565b840191505092915050565b6000610f928383610f4d565b905092915050565b6000602082019050919050565b6000610fb282610eca565b610fbc8185610ed5565b935083602082028501610fce85610ee6565b8060005b8581101561100a5784840389528151610feb8582610f86565b9450610ff683610f9a565b925060208a01995050600181019050610fd2565b50829750879550505050505092915050565b600060208201905081810360008301526110368184610fa7565b905092915050565b61104781610dce565b811461105257600080fd5b50565b6000813590506110648161103e565b92915050565b6000602082840312156110805761107f610e1a565b5b600061108e84828501611055565b91505092915050565b600080fd5b600080fd5b7f4e487b7100000000000000000000000000000000000000000000000000000000600052604160045260246000fd5b6110d982610f3c565b810181811067ffffffffffffffff821117156110f8576110f76110a1565b5b80604052505050565b600061110b610e10565b905061111782826110d0565b919050565b600067ffffffffffffffff821115611137576111366110a1565b5b61114082610f3c565b9050602081019050919050565b82818337600083830152505050565b600061116f61116a8461111c565b611101565b90508281526020810184848401111561118b5761118a61109c565b5b61119684828561114d565b509392505050565b600082601f8301126111b3576111b2611097565b5b81356111c384826020860161115c565b91505092915050565b6000602082840312156111e2576111e1610e1a565b5b600082013567ffffffffffffffff811115611200576111ff610e1f565b5b61120c8482850161119e565b91505092915050565b6000819050919050565b600061123a61123561123084610e24565b611215565b610e24565b9050919050565b600061124c8261121f565b9050919050565b600061125e82611241565b9050919050565b61126e81611253565b82525050565b60006020820190506112896000830184611265565b92915050565b61129881610e44565b82525050565b60006020820190506112b3600083018461128f565b92915050565b60006020820190506112ce6000830184610dbf565b92915050565b6000815190506112e38161103e565b92915050565b6000602082840312156112ff576112fe610e1a565b5b600061130d848285016112d4565b91505092915050565b600082825260208201905092915050565b7f596f75206e65656420746f20686f6c642061204d656469546f6b656e20746f2060008201527f766965772073617665642066696c65732e000000000000000000000000000000602082015250565b6000611383603183611316565b915061138e82611327565b604082019050919050565b600060208201905081810360008301526113b281611376565b9050919050565b7f4e487b7100000000000000000000000000000000000000000000000000000000600052602260045260246000fd5b6000600282049050600182168061140057607f821691505b602082108103611413576114126113b9565b5b50919050565b600060408201905061142e600083018561128f565b61143b6020830184610dd8565b9392505050565b61144b81610db3565b811461145657600080fd5b50565b60008151905061146881611442565b92915050565b60006020828403121561148457611483610e1a565b5b600061149284828501611459565b91505092915050565b7f546f6b656e207769746864726177616c206661696c6564000000000000000000600082015250565b60006114d1601783611316565b91506114dc8261149b565b602082019050919050565b60006020820190508181036000830152611500816114c4565b9050919050565b7f46696c6520636f6e74656e742063616e6e6f7420626520656d70747900000000600082015250565b600061153d601c83611316565b915061154882611507565b602082019050919050565b6000602082019050818103600083015261156c81611530565b9050919050565b7f596f75206e65656420746f20686f6c642061204d656469546f6b656e20746f2060008201527f736176652e000000000000000000000000000000000000000000000000000000602082015250565b60006115cf602583611316565b91506115da82611573565b604082019050919050565b600060208201905081810360008301526115fe816115c2565b9050919050565b60008190508160005260206000209050919050565b60006020601f8301049050919050565b600082821b905092915050565b6000600883026116677fffffffffffffffffffffffffffffffffffffffffffffffffffffffffffffffff8261162a565b611671868361162a565b95508019841693508086168417925050509392505050565b60006116a461169f61169a84610dce565b611215565b610dce565b9050919050565b6000819050919050565b6116be83611689565b6116d26116ca826116ab565b848454611637565b825550505050565b600090565b6116e76116da565b6116f28184846116b5565b505050565b5b818110156117165761170b6000826116df565b6001810190506116f8565b5050565b601f82111561175b5761172c81611605565b6117358461161a565b81016020851015611744578190505b6117586117508561161a565b8301826116f7565b50505b505050565b600082821c905092915050565b600061177e60001984600802611760565b1980831691505092915050565b6000611797838361176d565b9150826002028217905092915050565b6117b082610ef6565b67ffffffffffffffff8111156117c9576117c86110a1565b5b6117d382546113e8565b6117de82828561171a565b600060209050601f83116001811461181157600084156117ff578287015190505b611809858261178b565b865550611871565b601f19841661181f86611605565b60005b8281101561184757848901518255600182019150602085019450602081019050611822565b868310156118645784890151611860601f89168261176d565b8355505b6001600288020188555050505b505050505050565b600061188482610ef6565b61188e8185611316565b935061189e818560208601610f12565b6118a781610f3c565b840191505092915050565b600060408201905081810360008301526118cc8185611879565b90506118db6020830184610dd8565b9392505050565b7f416c726561647920737562736372696265640000000000000000000000000000600082015250565b6000611918601283611316565b9150611923826118e2565b602082019050919050565b600060208201905081810360008301526119478161190b565b9050919050565b7f546f6b656e207472616e73666572206661696c65640000000000000000000000600082015250565b6000611984601583611316565b915061198f8261194e565b602082019050919050565b600060208201905081810360008301526119b381611977565b9050919050565b7f4e487b7100000000000000000000000000000000000000000000000000000000600052601160045260246000fd5b60006119f482610dce565b91506119ff83610dce565b9250828201905080821115611a1757611a166119ba565b5b9291505056fea26469706673582212202ed5933220f0d5678ec8a9ab363e7039b9867ccdb8af942010d5f38e86d7cc9f64736f6c634300081c0033",
  "linkReferences": {},
  "deployedLinkReferences": {}
}